:100000000C942A000C943F000C943F000C943F0089
:100010000C943F000C943F000C943F000C943F0064
:100020000C943F000C943F000C943F000C943F0054
:100030000C943F000C943F000C943F000C943F0044
:100040000C943F000C943F000C943F000C943F0034
:100050000C943F0011241FBECFE5D8E0DEBFCDBF1A
:1000600011E0A0E6B0E0E4E9FEE602C005900D92E2
:10007000AA34B107D9F70E94FC290C9448370C9494
:100080000000EF92FF920F931F937B018C0120E001
:1000900030E040E05FE40E94ED0388238CF0C8016B
:1000A000B70120E030E040E05FE40E94B9010E9427
:1000B0004D049B01AC01205030404040504806C0E8
:1000C000C801B7010E944D049B01AC01B901CA01EE
:1000D0001F910F91FF90EF900895A0E0B0E0E3E74B
:1000E000F0E00C941137DC012B01FA019C91923065
:1000F00008F439C1EB018881823008F433C19430AF
:1001000069F4843009F02FC111969C91119789816F
:10011000981709F428C1A1E4B1E025C1843009F49D
:1001200021C18230A9F4923009F01DC19A01AD01BC
:1001300088E0EA010990AE01E90109929E0181502F
:10014000C1F7E201898111969C918923818308C1BD
:10015000923009F407C112962D903C901397EB0151
:100160008A819B811496AD90BD90CD90DC901797BD
:10017000EC80FD800E811F819101281B390BB90194
:1001800037FF04C066277727621B730B6032710547
:100190000CF061C0121613066CF537014801062EEB
:1001A00004C096948794779467940A94D2F721E0D8
:1001B00030E040E050E004C0220F331F441F551FC1
:1001C0006A95D2F721503040404050402E213F21C7
:1001D00040235123211531054105510521F021E02E
:1001E00030E040E050E079018A01E628F72808294C
:1001F00019293CC0232BD1F1260E371E35014601AB
:10020000062E04C096948794779467940A94D2F744
:1002100021E030E040E050E004C0220F331F441FD3
:10022000551F6A95D2F721503040404050402A2156
:100230003B214C215D21211531054105510521F05E
:1002400021E030E040E050E059016A01A628B728DB
:10025000C828D9280BC0821593052CF01C01AA24AC
:10026000BB24650103C0EE24FF24870111969C91F5
:10027000D20111968C91981709F445C0992339F051
:10028000A80197012A193B094C095D0906C0A6017E
:1002900095012E193F09400B510B57FD08C01182E3
:1002A0003382228224833583468357831DC081E0B5
:1002B00081833382228288279927DC01821B930B5A
:1002C000A40BB50B84839583A683B7830DC0220F3F
:1002D000331F441F551F24833583468357838281F0
:1002E000938101979383828324813581468157814D
:1002F000DA01C9010197A109B1098F5F9F4FAF4F83
:10030000BF4328F30BC0918333822282EA0CFB1C8B
:100310000C1D1D1DE482F5820683178383E0808314
:10032000248135814681578157FF1AC0C901AA2708
:1003300097FDA095BA2F81709070A070B0705695FF
:10034000479537952795822B932BA42BB52B848328
:100350009583A683B7838281938101969383828359
:10036000DF0101C0D201CD01CDB7DEB7E2E10C94CF
:100370002D37A0E2B0E0EFEBF1E00C941D3769837C
:100380007A838B839C832D833E834F835887E9E058
:10039000EE2EF12CEC0EFD1ECE010196B7010E944F
:1003A00076058E010F5E1F4FCE010596B8010E94A3
:1003B00076058A8991E089278A8BC701B801AE0149
:1003C000475E5F4F0E946D000E94A104A096E6E088
:1003D0000C943937A0E2B0E0E0EFF1E00C941D3767
:1003E00069837A838B839C832D833E834F835887D5
:1003F000F9E0EF2EF12CEC0EFD1ECE010196B701B7
:100400000E9476058E010F5E1F4FCE010596B80142
:100410000E947605C701B801AE01475E5F4F0E949A
:100420006D000E94A104A096E6E00C943937A0E28A
:10043000B0E0EDE1F2E00C94113769837A838B83AD
:100440009C832D833E834F835887CE010196BE0146
:10045000675F7F4F0E947605CE010596BE016F5EF5
:100460007F4F0E9476059985923088F08989823085
:10047000C8F0943019F4823051F404C0843029F467
:10048000923081F481E491E0C6C0923049F420E0DA
:100490009A858A89981321E02A87CE010996BBC0E4
:1004A000823049F420E09A858A89981321E02A8BCA
:1004B000CE014196B0C02D843E844F8458886D880B
:1004C0007E888F88988CEE24FF248701AA24BB2481
:1004D000650140E050E060E070E0E0E0F0E0C10184
:1004E00081709070892BE9F0E60CF71C081D191D2E
:1004F0009A01AB012A0D3B1D4C1D5D1D80E090E073
:10050000A0E0B0E0E614F7040805190520F481E046
:1005100090E0A0E0B0E0BA01A901480F591F6A1F9E
:100520007B1FAA0CBB1CCC1CDD1C97FE08C081E005
:1005300090E0A0E0B0E0A82AB92ACA2ADB2A3196C6
:10054000E032F10549F0660C771C881C991C569422
:10055000479437942794C3CFFA85EA892B893C893D
:100560008B859C85280F391F2E5F3F4F17C0CA010E
:1005700081709070892B61F016950795F794E79438
:1005800080E090E0A0E0B0E8E82AF92A0A2B1B2BD3
:1005900076956795579547952F5F3F4F77FDE7CF46
:1005A0000CC0440F551F661F771F17FD4160EE0CEE
:1005B000FF1C001F111F21503040403090E05907B0
:1005C00090E0690790E4790760F32B8F3C8FDB01A3
:1005D000CA018F779070A070B07080349105A1052A
:1005E000B10561F447FD0AC0E114F10401051105EC
:1005F00029F0405C5F4F6F4F7F4F40781A8EFE1797
:1006000011F081E08A8F4D8F5E8F6F8F78A383E02A
:10061000898FCE0149960E94A104A096E2E10C9434
:100620002D37A8E1B0E0E7E1F3E00C9419376983D6
:100630007A838B839C832D833E834F835887B9E0D5
:10064000EB2EF12CEC0EFD1ECE010196B7010E949F
:1006500076058E010F5E1F4FCE010596B8010E94F0
:1006600076052985223008F47EC03989323010F4AD
:10067000B8017CC08A859A8989278A87243011F03D
:10068000223031F4231709F06EC061E471E06EC0CE
:10069000343039F41D861E861F86188A1C861B86F8
:1006A00004C0323021F484E08987B7015FC02B8514
:1006B0003C858B899C89281B390B3C872B87ED84D3
:1006C000FE840F851889AD88BE88CF88D88CEA143F
:1006D000FB040C051D0540F4EE0CFF1C001F111F50
:1006E000215030403C872B8720E030E040E050E054
:1006F00080E090E0A0E0B0E460E070E0EA14FB0489
:100700000C051D0540F0282B392B4A2B5B2BEA18D2
:10071000FB080C091D09B695A79597958795EE0CD2
:10072000FF1C001F111F6F5F7F4F6F31710531F785
:10073000DA01C9018F779070A070B0708034910594
:10074000A105B10561F427FD0AC0E114F10401051A
:10075000110529F0205C3F4F4F4F5F4F20782D87C8
:100760003E874F87588BBE01675F7F4FCB010E944A
:10077000A1046896EAE00C943537A8E1B0E0E3EC18
:10078000F3E00C941D3769837A838B839C832D83DC
:100790003E834F83588789E0E82EF12CEC0EFD1E36
:1007A000CE010196B7010E9476058E010F5E1F4FA4
:1007B000CE010596B8010E9476058985823040F009
:1007C0008989823028F0C701B8010E94EE0501C076
:1007D0008FEF6896E6E00C943937A8E1B0E0E3EFDC
:1007E000F3E00C941D3769837A838B839C832D837C
:1007F0003E834F83588789E0E82EF12CEC0EFD1ED6
:10080000CE010196B7010E9476058E010F5E1F4F43
:10081000CE010596B8010E9476058985823040F0A8
:100820008989823028F0C701B8010E94EE0501C015
:100830008FEF6896E6E00C943937A8E1B0E0E3E288
:10084000F4E00C941D3769837A838B839C832D831A
:100850003E834F83588789E0E82EF12CEC0EFD1E75
:10086000CE010196B7010E9476058E010F5E1F4FE3
:10087000CE010596B8010E9476058985823040F048
:100880008989823028F0C701B8010E94EE0501C0B5
:1008900081E06896E6E00C943937ACE0B0E0E3E53F
:1008A000F4E00C94213769837A838B839C83CE0197
:1008B0000196BE016B5F7F4F0E9476058D8182306D
:1008C00061F1823050F1843021F48E81882351F11E
:1008D0002EC02F81388537FD20C06E812F31310524
:1008E0001CF06623F9F023C08EE190E0821B930B8D
:1008F00029853A854B855C8504C056954795379583
:1009000027958A95D2F76623B1F05095409530959A
:1009100021953F4F4F4F5F4F0EC020E030E040E049
:1009200050E009C02FEF3FEF4FEF5FE704C020E03A
:1009300030E040E050E8B901CA012C96E2E00C94A6
:100940003D37DF92EF92FF920F931F93FC01E480FB
:10095000F58006811781D1808081823048F480E063
:1009600090E0A0E1B0E0E82AF92A0A2B1B2BA5C0F1
:10097000843009F49FC0823021F4EE24FF248701E3
:1009800005C0E114F1040105110519F4E0E0F0E0FF
:1009900096C0628173819FEF623879070CF05BC06B
:1009A00022E83FEF261B370B2A3131052CF020E0DF
:1009B00030E040E050E02AC0B801A701022E04C098
:1009C00076956795579547950A94D2F781E090E020
:1009D000A0E0B0E004C0880F991FAA1FBB1F2A9592
:1009E000D2F70197A109B1098E219F21A023B1233C
:1009F0000097A105B10521F081E090E0A0E0B0E012
:100A00009A01AB01282B392B4A2B5B2BDA01C90148
:100A10008F779070A070B07080349105A105B105FA
:100A200039F427FF09C0205C3F4F4F4F5F4F04C090
:100A3000215C3F4F4F4F5F4FE0E0F0E02030A0E0FF
:100A40003A07A0E04A07A0E45A0710F0E1E0F0E01E
:100A500079018A0127C06038710564F5FB01E1580E
:100A6000FF4FD801C7018F779070A070B0708034AD
:100A70009105A105B10539F4E7FE0DC080E490E0D1
:100A8000A0E0B0E004C08FE390E0A0E0B0E0E80EAA
:100A9000F91E0A1F1B1F17FF05C016950795F7942F
:100AA000E794319687E016950795F794E7948A9531
:100AB000D1F705C0EE24FF248701EFEFF0E06E2FA1
:100AC000679566276795902F9F77D794DD24D794F5
:100AD0008E2F8695492F462B582F5D29B701CA01C5
:100AE0001F910F91FF90EF90DF900895FC01DB01C3
:100AF000408151812281622F6F7770E0221F22276F
:100B0000221F9381892F880F822B282F30E0991F75
:100B10009927991F11969C93119721153105A9F5D5
:100B2000411551056105710511F482E037C082E875
:100B30009FEF13969C938E9312979A01AB0167E0F7
:100B4000220F331F441F551F6A95D1F783E08C9302
:100B50000DC0220F331F441F551F12968D919C917B
:100B60001397019713969C938E931297203080E0F1
:100B7000380780E0480780E4580758F314962D930F
:100B80003D934D935C93179708952F3F310579F46A
:100B9000411551056105710519F484E08C930895A0
:100BA00064FF03C081E08C9312C01C9210C02F57C9
:100BB000304013963C932E93129783E08C9387E0FA
:100BC000440F551F661F771F8A95D1F770641496DE
:100BD0004D935D936D937C93179708951F93DC015C
:100BE000FB019C91923008F447C08081823008F468
:100BF00043C0943051F411961C91843099F5818151
:100C0000682F70E0611B71093FC0843021F0923081
:100C100031F48230B9F18181882389F12DC0119698
:100C20001C9111978230F1F081811817D9F4129636
:100C30002D913C911397828193818217930794F0B1
:100C400028173907BCF014968D919D910D90BC9199
:100C5000A02D2481358146815781281739074A07FD
:100C60005B0718F4112341F00AC082179307A40709
:100C7000B50740F4112319F061E070E005C06FEF93
:100C80007FEF02C060E070E0CB011F910895DF9319
:100C9000CF93CDB7DEB7A7E2B0E0E7E2F0E0808126
:100CA00080648C93A7E2B0E0E7E2F0E080818F7788
:100CB0008C93A7E2B0E0E7E2F0E080818F7D8C9337
:100CC000A6E2B0E0E6E2F0E080818F7D8C93A6E2C0
:100CD000B0E0E6E2F0E0808181608C93A6E2B0E0D3
:100CE000E6E2F0E0808182608C93A6E2B0E0E6E28A
:100CF000F0E0808184608C93A6E2B0E0E6E2F0E070
:100D0000808180688C93CF91DF910895DF93CF939A
:100D100000D000D0CDB7DEB789837B836A83898119
:100D2000A7E2B0E0E7E2F0E08081807E8C93A7E26A
:100D3000B0E0E7E2F0E090818981892B8C93A6E214
:100D4000B0E0E6E2F0E0808180648C93E6E2F0E0DF
:100D5000808182958F70882F90E0817090700097CD
:100D6000A9F3A6E2B0E0E6E2F0E0808180618C9336
:100D7000E4E2F0E080819181EA81FB8191838083CC
:100D80000F900F900F900F90CF91DF910895DF9308
:100D9000CF93CDB7DEB729970FB6F894DEBF0FBE5D
:100DA000CDBF89836A834B838B81282F30E03987BD
:100DB000288788859985009739F0288539852130DD
:100DC000310509F475C0E2C08981282F30E03F83E6
:100DD0002E838E819F818130910559F12E813F8133
:100DE000223031052CF48E819F81009769F0CEC0AE
:100DF0002E813F812230310589F18E819F818330A0
:100E0000910509F440C0C2C0AAE3B0E0EAE3F0E013
:100E10008081482F8A81282F30E081E090E0022EE7
:100E200002C0880F991F0A94E2F7809584238C935F
:100E3000ADC0A7E3B0E0E7E3F0E08081482F8A810E
:100E4000282F30E081E090E0022E02C0880F991F29
:100E50000A94E2F7809584238C9398C0A4E3B0E0D1
:100E6000E4E3F0E08081482F8A81282F30E081E0A0
:100E700090E0022E02C0880F991F0A94E2F7809535
:100E800084238C9383C0A1E3B0E0E1E3F0E08081B0
:100E9000482F8A81282F30E081E090E0022E02C0A6
:100EA000880F991F0A94E2F7809584238C936EC073
:100EB0008981282F30E03D832C838C819D81813076
:100EC000910549F12C813D81223031052CF48C8132
:100ED0009D81009761F05AC02C813D8122303105FF
:100EE00071F18C819D8183309105E9F14FC0AAE3B6
:100EF000B0E0EAE3F0E08081482F8A81282F30E0DB
:100F000081E090E0022E02C0880F991F0A94E2F758
:100F1000842B8C933BC0A7E3B0E0E7E3F0E0808153
:100F2000482F8A81282F30E081E090E0022E02C015
:100F3000880F991F0A94E2F7842B8C9327C0A4E3AF
:100F4000B0E0E4E3F0E08081482F8A81282F30E090
:100F500081E090E0022E02C0880F991F0A94E2F708
:100F6000842B8C9313C0A1E3B0E0E1E3F0E0808137
:100F7000482F8A81282F30E081E090E0022E02C0C5
:100F8000880F991F0A94E2F7842B8C9329960FB649
:100F9000F894DEBF0FBECDBFCF91DF910895DF93F0
:100FA000CF93CDB7DEB729970FB6F894DEBF0FBE4B
:100FB000CDBF89836A834B838B81282F30E03987AB
:100FC000288788859985009739F0288539852130CB
:100FD000310509F475C0E2C08981282F30E03F83D4
:100FE0002E838E819F818130910559F12E813F8121
:100FF000223031052CF48E819F81009769F0CEC09C
:101000002E813F812230310589F18E819F8183308D
:10101000910509F440C0C2C0ABE3B0E0EBE3F0E0FF
:101020008081482F8A81282F30E081E090E0022ED5
:1010300002C0880F991F0A94E2F7809584238C934D
:10104000ADC0A8E3B0E0E8E3F0E08081482F8A81FA
:10105000282F30E081E090E0022E02C0880F991F17
:101060000A94E2F7809584238C9398C0A5E3B0E0BE
:10107000E5E3F0E08081482F8A81282F30E081E08D
:1010800090E0022E02C0880F991F0A94E2F7809523
:1010900084238C9383C0A2E3B0E0E2E3F0E080819C
:1010A000482F8A81282F30E081E090E0022E02C094
:1010B000880F991F0A94E2F7809584238C936EC061
:1010C0008981282F30E03D832C838C819D81813064
:1010D000910549F12C813D81223031052CF48C8120
:1010E0009D81009761F05AC02C813D8122303105ED
:1010F00071F18C819D8183309105E9F14FC0ABE3A3
:10110000B0E0EBE3F0E08081482F8A81282F30E0C7
:1011100081E090E0022E02C0880F991F0A94E2F746
:10112000842B8C933BC0A8E3B0E0E8E3F0E080813F
:10113000482F8A81282F30E081E090E0022E02C003
:10114000880F991F0A94E2F7842B8C9327C0A5E39C
:10115000B0E0E5E3F0E08081482F8A81282F30E07D
:1011600081E090E0022E02C0880F991F0A94E2F7F6
:10117000842B8C9313C0A2E3B0E0E2E3F0E0808123
:10118000482F8A81282F30E081E090E0022E02C0B3
:10119000880F991F0A94E2F7842B8C9329960FB637
:1011A000F894DEBF0FBECDBFCF91DF910895DF93DE
:1011B000CF9300D000D0CDB7DEB789836A83898111
:1011C000282F30E03C832B838B819C8181309105DB
:1011D00009F43EC02B813C81223031052CF48B81F7
:1011E0009C81009771F0A8C02B813C812230310591
:1011F00009F455C08B819C818330910509F476C038
:101200009BC0AAE3B0E0EAE3F0E08081482F8A8146
:10121000282F30E081E090E002C0880F991F2A95C6
:10122000E2F7809584238C93ABE3B0E0EBE3F0E04E
:101230008081482F8A81282F30E081E090E0022EC3
:1012400002C0880F991F0A94E2F7842B8C9374C014
:10125000A7E3B0E0E7E3F0E08081482F8A81282F00
:1012600030E081E090E002C0880F991F2A95E2F7F4
:10127000809584238C93A8E3B0E0E8E3F0E08081DC
:10128000482F8A81282F30E081E090E0022E02C0B2
:10129000880F991F0A94E2F7842B8C934DC0A4E326
:1012A000B0E0E4E3F0E08081482F8A81282F30E02D
:1012B00081E090E002C0880F991F2A95E2F780959F
:1012C00084238C93A5E3B0E0E5E3F0E08081482F30
:1012D0008A81282F30E081E090E0022E02C0880F42
:1012E000991F0A94E2F7842B8C9326C0A1E3B0E007
:1012F000E1E3F0E08081482F8A81282F30E081E00F
:1013000090E002C0880F991F2A95E2F78095842308
:101310008C93A2E3B0E0E2E3F0E08081482F8A8181
:10132000282F30E081E090E0022E02C0880F991F44
:101330000A94E2F7842B8C930F900F900F900F90EC
:10134000CF91DF910895DF93CF9300D000D0CDB738
:10135000DEB789836A838981282F30E03C832B8321
:101360008B819C818130910549F12B813C81223018
:1013700031052CF48B819C81009761F05AC02B8140
:101380003C812230310571F18B819C818330910544
:10139000E9F14FC0AAE3B0E0EAE3F0E08081482F32
:1013A0008A81282F30E081E090E0022E02C0880F71
:1013B000991F0A94E2F784278C933BC0A7E3B0E01F
:1013C000E7E3F0E08081482F8A81282F30E081E038
:1013D00090E0022E02C0880F991F0A94E2F784273A
:1013E0008C9327C0A4E3B0E0E4E3F0E08081482FD1
:1013F0008A81282F30E081E090E0022E02C0880F21
:10140000991F0A94E2F784278C9313C0A1E3B0E0FC
:10141000E1E3F0E08081482F8A81282F30E081E0ED
:1014200090E0022E02C0880F991F0A94E2F78427E9
:101430008C930F900F900F900F90CF91DF910895A4
:10144000DF93CF9300D000D0CDB7DEB789836A8316
:101450008981282F30E03C832B838B819C818130D4
:10146000910549F12B813C81223031052CF48B818F
:101470009C81009761F05AC02B813C81223031055C
:1014800071F18B819C8183309105E9F14FC0ABE311
:10149000B0E0EBE3F0E08081482F8A81282F30E034
:1014A00081E090E0022E02C0880F991F0A94E2F7B3
:1014B00084278C933BC0A8E3B0E0E8E3F0E08081B0
:1014C000482F8A81282F30E081E090E0022E02C070
:1014D000880F991F0A94E2F784278C9327C0A5E30D
:1014E000B0E0E5E3F0E08081482F8A81282F30E0EA
:1014F00081E090E0022E02C0880F991F0A94E2F763
:1015000084278C9313C0A2E3B0E0E2E3F0E0808193
:10151000482F8A81282F30E081E090E0022E02C01F
:10152000880F991F0A94E2F784278C930F900F90ED
:101530000F900F90CF91DF910895DF93CF9300D05C
:1015400000D0CDB7DEB789836A838981282F30E048
:101550003C832B838B819C8181309105D1F02B8141
:101560003C81223031052CF48B819C81009761F005
:101570001EC02B813C812230310581F08B819C8102
:101580008330910581F013C0EAE3F0E08A81808323
:101590000EC0E7E3F0E08A81808309C0E4E3F0E075
:1015A0008A81808304C0E1E3F0E08A8180830F9028
:1015B0000F900F900F90CF91DF910895DF93CF930D
:1015C00000D000D0CDB7DEB789836A838981282F08
:1015D00030E03C832B838B819C8181309105D1F05D
:1015E0002B813C81223031052CF48B819C8100972A
:1015F00061F01EC02B813C812230310581F08B814E
:101600009C818330910581F013C0EBE3F0E08A8187
:1016100080830EC0E8E3F0E08A81808309C0E5E3BF
:10162000F0E08A81808304C0E2E3F0E08A81808375
:101630000F900F900F900F90CF91DF910895DF934F
:10164000CF9300D000D0CDB7DEB78A838A81282F10
:1016500030E03C832B838B819C8181309105D1F0DC
:101660002B813C81223031052CF48B819C810097A9
:1016700061F01EC02B813C812230310581F08B81CD
:101680009C818330910581F013C0E9E3F0E0808113
:1016900089830EC0E6E3F0E08081898309C0E3E33B
:1016A000F0E08081898304C0E0E3F0E080818983F9
:1016B00089810F900F900F900F90CF91DF91089537
:1016C000DF93CF9300D000D00F92CDB7DEB78A83DF
:1016D0006B838A81282F30E03D832C834C815D8190
:1016E0004130510541F18C819D818230910534F466
:1016F0002C813D812115310561F052C04C815D8105
:101700004230510551F18C819D8183309105B9F1B1
:1017100047C0E9E3F0E08081282F30E08B81882FFB
:1017200090E0A90102C0559547958A95E2F7CA0154
:101730008170898335C0E6E3F0E08081282F30E0B6
:101740008B81882F90E0A90102C0559547958A9515
:10175000E2F7CA018170898323C0E3E3F0E080816E
:10176000282F30E08B81882F90E0A90102C0559589
:1017700047958A95E2F7CA018170898311C0E0E339
:10178000F0E08081282F30E08B81882F90E0A90144
:1017900002C0559547958A95E2F7CA018170898301
:1017A00089810F900F900F900F900F90CF91DF9144
:1017B0000895DF93CF93CDB7DEB7AFE5B0E0EFE5A7
:1017C000F0E0808180688C93CF91DF910895DF9362
:1017D000CF93CDB7DEB7AFE5B0E0EFE5F0E08081C5
:1017E0008F778C93CF91DF910895DF93CF9300D0C3
:1017F00000D0CDB7DEB71A8219821C8244C08C811A
:10180000282F30E080E190E002C0880F991F2A95D0
:10181000E2F78A8383E06A810E949D0A8C81282FE7
:1018200030E080E190E002C0880F991F2A95E2F72E
:101830008095898383E069810E94DE0A1B821DC036
:1018400083E06B810E94600B8823A1F48B81882F39
:1018500090E0880F991F880F991F982F8C81890F0E
:101860008F5F0E94480C0F900F900F900F90CF91B8
:10187000DF9108958B818F5F8B838B81843000F3A0
:101880008C818F5F8C838C81843008F4B8CFB5CF86
:10189000DF93CF9300D000D0CDB7DEB789838981A5
:1018A000282F30E03C832B838B819C8188309105ED
:1018B00009F470C02B813C81293031055CF58B81A6
:1018C0009C818430910509F459C02B813C812530DD
:1018D00031059CF48B819C818230910509F448C0CC
:1018E0002B813C81233031050CF045C08B819C81DC
:1018F0008130910509F439C067C02B813C812630C5
:10190000310509F441C08B819C81873091050CF031
:101910003EC037C02B813C812C30310509F446C0D4
:101920008B819C818D3091055CF42B813C812A3028
:101930003105B1F18B819C818B309105A4F52DC0CF
:101940002B813C812E303105B9F18B819C818E3009
:1019500091057CF12B813C812F30310579F18B8110
:101960009C818031910569F12FC097E09A832EC048
:1019700028E02A832BC039E03A8328C085E28A8395
:1019800025C094E09A8322C025E02A831FC036E058
:101990003A831CC08AE28A8319C091E09A8316C0F8
:1019A00022E02A8313C033E03A8310C08DE28A8399
:1019B0000DC09DE09A830AC01A8208C02DE32A83D5
:1019C00005C03BE23A8302C089818A838A810F90F5
:1019D0000F900F900F90CF91DF910895DF93CF93E9
:1019E000CDB7DEB7E8970FB6F894DEBF0FBECDBF18
:1019F00082E06FEF0E949D0A81E060E041E00E947A
:101A0000C70681E061E041E00E94C70681E062E034
:101A100041E00E94C70680E090E0A0E2B2E48DAB16
:101A20009EABAFABB8AF6DA97EA98FA998AD20E0F2
:101A300030E04AEF54E40E941702DC01CB0189AB8D
:101A40009AABABABBCAB69A97AA98BA99CA920E0E6
:101A500030E040E85FE30E941D0488232CF481E01D
:101A600090E098AB8FA73FC069A97AA98BA99CA9E0
:101A700020E03FEF4FE757E40E94BD0318164CF5F6
:101A80006DA97EA98FA998AD20E030E040E251E435
:101A90000E941702DC01CB01BC01CD010E94410074
:101AA000DC01CB0198AB8FA70FC088EC90E09EA71C
:101AB0008DA78DA59EA50197F1F79EA78DA78FA550
:101AC00098A9019798AB8FA78FA598A9009769F758
:101AD00014C069A97AA98BA99CA90E944100DC01C4
:101AE000CB0198AB8FA78FA598A99CA78BA78BA597
:101AF0009CA50197F1F79CA78BA788E390E00E9433
:101B00001B1D80E090E0A0E8BFE38FA398A7A9A7E2
:101B1000BAA76FA178A589A59AA520E030E04AEF81
:101B200054E40E941702DC01CB018BA39CA3ADA35C
:101B3000BEA36BA17CA18DA19EA120E030E040E876
:101B40005FE30E941D0488232CF481E090E09AA3B7
:101B500089A33FC06BA17CA18DA19EA120E03FEF96
:101B60004FE757E40E94BD0318164CF56FA178A506
:101B700089A59AA520E030E040E251E40E941702D6
:101B8000DC01CB01BC01CD010E944100DC01CB0195
:101B90009AA389A30FC088EC90E098A38F8F8F8DB4
:101BA00098A10197F1F798A38F8F89A19AA1019726
:101BB0009AA389A389A19AA1009769F714C06BA180
:101BC0007CA18DA19EA10E944100DC01CB019AA3C2
:101BD00089A389A19AA19E8F8D8F8D8D9E8D01974E
:101BE000F1F79E8F8D8F8CE090E00E941B1D80E0AE
:101BF00090E0A0E8BFE3898F9A8FAB8FBC8F698D8F
:101C00007A8D8B8D9C8D20E030E04AEF54E40E9469
:101C10001702DC01CB018D8B9E8BAF8BB88F6D894A
:101C20007E898F89988D20E030E040E85FE30E9454
:101C30001D0488232CF481E090E09C8B8B8B3FC0AB
:101C40006D897E898F89988D20E03FEF4FE757E4BB
:101C50000E94BD0318164CF5698D7A8D8B8D9C8D75
:101C600020E030E040E251E40E941702DC01CB01A9
:101C7000BC01CD010E944100DC01CB019C8B8B8B10
:101C80000FC088EC90E09A8B898B89899A8901979B
:101C9000F1F79A8B898B8B899C8901979C8B8B8B15
:101CA0008B899C89009769F714C06D897E898F891B
:101CB000988D0E944100DC01CB019C8B8B8B8B8922
:101CC0009C89988B8F878F8598890197F1F7988BDE
:101CD0008F8781E090E00E941B1D80E090E0A0E8EB
:101CE000BFE38B879C87AD87BE876B857C858D85A1
:101CF0009E8520E030E04AEF54E40E941702DC01A8
:101D0000CB018F839887A987BA876F81788589856A
:101D10009A8520E030E040E85FE30E941D048823BC
:101D20002CF481E090E09E838D833FC06F817885A5
:101D300089859A8520E03FEF4FE757E40E94BD0375
:101D400018164CF56B857C858D859E8520E030E0EE
:101D500040E251E40E941702DC01CB01BC01CD013D
:101D60000E944100DC01CB019E838D830FC088EC73
:101D700090E09C838B838B819C810197F1F79C83FE
:101D80008B838D819E8101979E838D838D819E8122
:101D9000009769F714C06F81788589859A850E94BC
:101DA0004100DC01CB019E838D838D819E819A83CE
:101DB000898389819A810197F1F79A838983E896CB
:101DC0000FB6F894DEBF0FBECDBFCF91DF9108955F
:101DD0000F931F93DF93CF93CDB7DEB7C456D04098
:101DE0000FB6F894DEBF0FBECDBF82E064E041E0E5
:101DF0000E94C70682E065E041E00E94C70682E0DB
:101E000066E041E00E94C70682E067E041E00E9490
:101E1000C70681E060E041E00E94C70681E061E022
:101E200041E00E94C70681E062E041E00E94C706EF
:101E3000FE01EF59FF4F80E090E0A8E4B2E4808318
:101E40009183A283B3838E01035A1F4FFE01EF5982
:101E5000FF4F608171818281938120E030E04AEF01
:101E600054E40E941702DC01CB01F80180839183C6
:101E7000A283B383FE01E35AFF4F608171818281A7
:101E8000938120E030E040E85FE30E941D04882356
:101E900044F4FE01E55AFF4F81E090E09183808396
:101EA00064C0FE01E35AFF4F60817181828193819A
:101EB00020E03FEF4FE757E40E94BD0318160CF0F7
:101EC00043C0FE01EF59FF4F608171818281938190
:101ED00020E030E040E251E40E941702DC01CB0137
:101EE0008E01055A1F4FBC01CD010E944100DC014B
:101EF000CB01F801918380831FC0FE01E75AFF4F99
:101F000088EC90E091838083FE01E75AFF4F808147
:101F100091810197F1F7FE01E75AFF4F918380838A
:101F2000DE01A55ABF4FFE01E55AFF4F8081918126
:101F3000019711969C938E93FE01E55AFF4F808185
:101F400091810097D1F627C08E01055A1F4FFE01DF
:101F5000E35AFF4F60817181828193810E94410029
:101F6000DC01CB01F80191838083DE01A95ABF4FC8
:101F7000FE01E55AFF4F808191818D939C93FE0174
:101F8000E95AFF4F808191810197F1F7FE01E95AEB
:101F9000FF4F9183808382E090E00E94771EFE01D4
:101FA000ED5AFF4F80E090E0A4E3B2E48083918398
:101FB000A283B3838E01015B1F4FFE01ED5AFF4FD9
:101FC00060817181828193812BEA3AEA4AE250E48E
:101FD0000E941702DC01CB01F80180839183A28368
:101FE000B383FE01E15BFF4F608171818281938148
:101FF00020E030E040E85FE30E941D04882334F4D1
:10200000FE01E25BFF4F81E08083E0C0FE01E15B07
:10201000FF4F608171818281938120E030E04FE742
:1020200053E40E94BD0318160CF0C0C0FE01ED5A27
:10203000FF4F608171818281938120E030E04AE727
:1020400054E40E941103DC01CB01FE01E65BFF4F6B
:1020500080839183A283B3838E010A5B1F4FFE01AD
:10206000E65BFF4F608171818281938120E030E0E7
:102070004AEF54E40E941702DC01CB01F80180838F
:102080009183A283B383FE01EA5BFF4F608171817C
:102090008281938120E030E040E85FE30E941D04EC
:1020A000882344F4FE01EC5BFF4F81E090E09183D4
:1020B000808364C0FE01EA5BFF4F60817181828191
:1020C000938120E03FEF4FE757E40E94BD031816CD
:1020D0000CF043C0FE01E65BFF4F6081718182819D
:1020E000938120E030E040E251E40E941702DC01DD
:1020F000CB018E010C5B1F4FBC01CD010E94410042
:10210000DC01CB01F801918380831FC0FE01EE5BEF
:10211000FF4F88EC90E091838083FE01EE5BFF4FE0
:10212000808191810197F1F7FE01EE5BFF4F918372
:102130008083DE01AC5BBF4FFE01EC5BFF4F808113
:102140009181019711969C938E93FE01EC5BFF4F5A
:10215000808191810097D1F642C08E010C5B1F4FA8
:10216000FE01EA5BFF4F60817181828193810E9451
:102170004100DC01CB01F80191838083DE01A05C8A
:10218000BF4FFE01EC5BFF4F8081918111969C93C4
:102190008E93FE01E05CFF4F808191810197F1F702
:1021A000FE01E05CFF4F9183808319C08E01025BCA
:1021B0001F4FFE01E15BFF4F60817181828193813E
:1021C0000E944100DC01CB01F8018083FE01E25B4B
:1021D000FF4F80818FAF8FAD8A95F1F78FAF88E287
:1021E00090E00E94771E80E090E0A4E3B2E48BAF21
:1021F0009CAFADAFBEAF6BAD7CAD8DAD9EAD2BEAF0
:102200003AEA4AE250E40E941702DC01CB018FABAC
:1022100098AFA9AFBAAF6FA978AD89AD9AAD20E0FC
:1022200030E040E85FE30E941D0488231CF481E055
:102230008EAB91C06FA978AD89AD9AAD20E030E04A
:102240004FE753E40E94BD0318160CF07BC06BAD42
:102250007CAD8DAD9EAD20E030E04AE754E40E94B5
:102260001103DC01CB018AAB9BABACABBDAB6AA964
:102270007BA98CA99DA920E030E04AEF54E40E949C
:102280001702DC01CB018EA79FA7A8ABB9AB6EA547
:102290007FA588A999A920E030E040E85FE30E948B
:1022A0001D0488232CF481E090E09DA78CA73FC0FB
:1022B0006EA57FA588A999A920E03FEF4FE757E4D5
:1022C0000E94BD0318164CF56AA97BA98CA99DA98B
:1022D00020E030E040E251E40E941702DC01CB0133
:1022E000BC01CD010E944100DC01CB019DA78CA760
:1022F0000FC088EC90E09BA78AA78AA59BA50197B1
:10230000F1F79BA78AA78CA59DA501979DA78CA7F0
:102310008CA59DA5009769F724C06EA57FA588A907
:1023200099A90E944100DC01CB019DA78CA78CA537
:102330009DA599A788A788A599A50197F1F799A7C1
:1023400088A70FC06FA978AD89AD9AAD0E944100F2
:10235000DC01CB018EAB8EA98FA38FA18A95F1F7FB
:102360008FA38CE090E00E94771E80E090E0A4E3D1
:10237000B2E48BA39CA3ADA3BEA36BA17CA18DA152
:102380009EA12BEA3AEA4AE250E40E941702DC01DD
:10239000CB018F8F98A3A9A3BAA36F8D78A189A130
:1023A0009AA120E030E040E85FE30E941D0488230A
:1023B0001CF481E08E8F91C06F8D78A189A19AA1C4
:1023C00020E030E04FE753E40E94BD0318160CF004
:1023D0007BC06BA17CA18DA19EA120E030E04AE7EB
:1023E00054E40E941103DC01CB018A8F9B8FAC8FD8
:1023F000BD8F6A8D7B8D8C8D9D8D20E030E04AEF06
:1024000054E40E941702DC01CB018E8B9F8BA88FB6
:10241000B98F6E897F89888D998D20E030E040E802
:102420005FE30E941D0488232CF481E090E09D8BE3
:102430008C8B3FC06E897F89888D998D20E03FEF1E
:102440004FE757E40E94BD0318164CF56A8D7B8D4B
:102450008C8D9D8D20E030E040E251E40E94170217
:10246000DC01CB01BC01CD010E944100DC01CB01AC
:102470009D8B8C8B0FC088EC90E09B8B8A8B8A891C
:102480009B890197F1F79B8B8A8B8C899D8901979A
:102490009D8B8C8B8C899D89009769F724C06E89F0
:1024A0007F89888D998D0E944100DC01CB019D8B35
:1024B0008C8B8C899D89998B888B888999890197C8
:1024C000F1F7998B888B0FC06F8D78A189A19AA1A4
:1024D0000E944100DC01CB018E8F8E8D8F878F850E
:1024E0008A95F1F78F8781E090E00E94771E80E067
:1024F00090E0A0E0B0E48B879C87AD87BE876B85BA
:102500007C858D859E8520E030E04AEF54E40E9472
:102510001702DC01CB018F839887A987BA876F8167
:10252000788589859A8520E030E040E85FE30E9465
:102530001D0488232CF481E090E09E838D833FC0AE
:102540006F81788589859A8520E03FEF4FE757E4D2
:102550000E94BD0318164CF56B857C858D859E8584
:1025600020E030E040E251E40E941702DC01CB01A0
:10257000BC01CD010E944100DC01CB019E838D8313
:102580000FC088EC90E09C838B838B819C810197AA
:10259000F1F79C838B838D819E8101979E838D8330
:1025A0008D819E81009769F714C06F817885898538
:1025B0009A850E944100DC01CB019E838D838D8131
:1025C0009E819A83898389819A810197F1F79A8301
:1025D0008983CC59DF4F0FB6F894DEBF0FBECDBF55
:1025E000CF91DF911F910F910895DF93CF93CDB7D6
:1025F000DEB7A7970FB6F894DEBF0FBECDBF8FA38F
:1026000081E060E041E00E94CF0781E061E040E0CE
:102610000E94CF0782E06FA10E94DE0A81E062E0A3
:1026200041E00E94CF0780E090E0A0E0B0E48BA3FF
:102630009CA3ADA3BEA36BA17CA18DA19EA12BEAFF
:102640003AEA4AE250E40E941702DC01CB018F8F84
:1026500098A3A9A3BAA36F8D78A189A19AA120E01C
:1026600030E040E85FE30E941D0488231CF481E011
:102670008E8F91C06F8D78A189A19AA120E030E062
:102680004FE753E40E94BD0318160CF07BC06BA10A
:102690007CA18DA19EA120E030E04AE754E40E9495
:1026A0001103DC01CB018A8F9B8FAC8FBD8F6A8DAC
:1026B0007B8D8C8D9D8D20E030E04AEF54E40E94AC
:1026C0001702DC01CB018E8B9F8BA88FB98F6E898F
:1026D0007F89888D998D20E030E040E85FE30E949B
:1026E0001D0488232CF481E090E09D8B8C8B3FC0EF
:1026F0006E897F89888D998D20E03FEF4FE757E401
:102700000E94BD0318164CF56A8D7B8D8C8D9D8DB6
:1027100020E030E040E251E40E941702DC01CB01EE
:10272000BC01CD010E944100DC01CB019D8B8C8B53
:102730000FC088EC90E09B8B8A8B8A899B890197DC
:10274000F1F79B8B8A8B8C899D8901979D8B8C8B54
:102750008C899D89009769F724C06E897F89888D4F
:10276000998D0E944100DC01CB019D8B8C8B8C8963
:102770009D89998B888B888999890197F1F7998B25
:10278000888B0FC06F8D78A189A19AA10E9441000A
:10279000DC01CB018E8F8E8D8F878F858A95F1F727
:1027A0008F8781E062E040E00E94CF0780E090E008
:1027B000A0E0B0E48B879C87AD87BE876B857C8566
:1027C0008D859E8520E030E04AEF54E40E94170298
:1027D000DC01CB018F839887A987BA876F817885C1
:1027E00089859A8520E030E040E85FE30E941D047F
:1027F00088232CF481E090E09E838D833FC06F811D
:10280000788589859A8520E03FEF4FE757E40E945D
:10281000BD0318164CF56B857C858D859E8520E063
:1028200030E040E251E40E941702DC01CB01BC0120
:10283000CD010E944100DC01CB019E838D830FC03E
:1028400088EC90E09C838B838B819C810197F1F7CE
:102850009C838B838D819E8101979E838D838D8147
:102860009E81009769F714C06F81788589859A8564
:102870000E944100DC01CB019E838D838D819E816E
:102880009A83898389819A810197F1F79A83898351
:10289000A7960FB6F894DEBF0FBECDBFCF91DF91E4
:1028A00008950F931F93DF93CF93CDB7DEB7C15C2D
:1028B000D0400FB6F894DEBF0FBECDBFFE01EF5380
:1028C000FF4F808381E060E041E00E94CF0781E01C
:1028D00061E040E00E94CF07FE01E354FF4F80E03B
:1028E00090E0A0EAB1E480839183A283B3838E0158
:1028F00007541F4FFE01E354FF4F608171818281B5
:1029000093812BEA3AEA4AE250E40E941702DC0182
:10291000CB01F80180839183A283B383FE01E75446
:10292000FF4F608171818281938120E030E040E837
:102930005FE30E941D04882334F4FE01E854FF4F36
:1029400081E08083E0C0FE01E754FF4F6081718128
:102950008281938120E030E04FE753E40E94BD0381
:1029600018160CF0C0C0FE01E354FF4F6081718166
:102970008281938120E030E04AE754E40E94110311
:10298000DC01CB01FE01EC54FF4F80839183A283D5
:10299000B3838E0100551F4FFE01EC54FF4F608141
:1029A00071818281938120E030E04AEF54E40E94FB
:1029B0001702DC01CB01F80180839183A283B383EA
:1029C000FE01E055FF4F608171818281938120E09B
:1029D00030E040E85FE30E941D04882344F4FE01D8
:1029E000E255FF4F81E090E09183808364C0FE0157
:1029F000E055FF4F608171818281938120E03FEF3C
:102A00004FE757E40E94BD0318160CF043C0FE01C7
:102A1000EC54FF4F608171818281938120E030E02E
:102A200040E251E40E941702DC01CB018E01025505
:102A30001F4FBC01CD010E944100DC01CB01F80118
:102A4000918380831FC0FE01E455FF4F88EC90E026
:102A500091838083FE01E455FF4F8081918101972E
:102A6000F1F7FE01E455FF4F91838083DE01A2550B
:102A7000BF4FFE01E255FF4F808191810197119672
:102A80009C938E93FE01E255FF4F808191810097C8
:102A9000D1F64BC08E0102551F4FFE01E055FF4F8E
:102AA00060817181828193810E944100DC01CB01B0
:102AB000F80191838083DE01A655BF4FFE01E255E8
:102AC000FF4F8081918111969C938E93FE01E65574
:102AD000FF4F808191810197F1F7FE01E655FF4F8D
:102AE0009183808322C08E0108541F4FFE01E7545A
:102AF000FF4F60817181828193810E944100DC01DE
:102B0000CB01F8018083DE01A755BF4FFE01E854D9
:102B1000FF4F80818C93FE01E755FF4F80818A959E
:102B2000F1F7FE01E755FF4F808381E062E041E06D
:102B30000E94CF07FE01EB55FF4F80E090E0A6E139
:102B4000B3E480839183A283B3838E010F551F4F1B
:102B5000FE01EB55FF4F60817181828193812BEAE9
:102B60003AEA4AE250E40E941702DC01CB01F80184
:102B700080839183A283B383FE01EF55FF4F608171
:102B800071818281938120E030E040E85FE30E9420
:102B90001D04882334F4FE01E056FF4F81E080835A
:102BA000E0C0FE01EF55FF4F60817181828193810A
:102BB00020E030E04FE753E40E94BD0318160CF00C
:102BC000C0C0FE01EB55FF4F60817181828193810E
:102BD00020E030E04AE754E40E941103DC01CB011D
:102BE000FE01E456FF4F80839183A283B3838E015D
:102BF00008561F4FFE01E456FF4F608171818281AC
:102C0000938120E030E04AEF54E40E941702DC0197
:102C1000CB01F80180839183A283B383FE01E85640
:102C2000FF4F608171818281938120E030E040E834
:102C30005FE30E941D04882344F4FE01EA56FF4F1F
:102C400081E090E09183808364C0FE01E856FF4FED
:102C5000608171818281938120E03FEF4FE757E4EB
:102C60000E94BD0318160CF043C0FE01E456FF4F4E
:102C7000608171818281938120E030E040E251E403
:102C80000E941702DC01CB018E010A561F4FBC01C6
:102C9000CD010E944100DC01CB01F80191838083CA
:102CA0001FC0FE01EC56FF4F88EC90E091838083BB
:102CB000FE01EC56FF4F808191810197F1F7FE01F3
:102CC000EC56FF4F91838083DE01AA56BF4FFE0171
:102CD000EA56FF4F80819181019711969C938E93C4
:102CE000FE01EA56FF4F808191810097D1F64BC0DB
:102CF0008E010A561F4FFE01E856FF4F6081718119
:102D0000828193810E944100DC01CB01F801918313
:102D10008083DE01AE56BF4FFE01EA56FF4F808131
:102D2000918111969C938E93FE01EE56FF4F808108
:102D300091810197F1F7FE01EE56FF4F9183808359
:102D400022C08E0100561F4FFE01EF55FF4F6081DC
:102D50007181828193810E944100DC01CB01F801E5
:102D60008083DE01AF56BF4FFE01E056FF4F8081EA
:102D70008C93FE01EF56FF4F80818A95F1F7FE019B
:102D8000EF56FF4F8083FE01EF53FF4F8081829506
:102D90008F70982F917082E064E0492F0E94CF07D6
:102DA000FE01EF53FF4F8081829586958770982FA3
:102DB000917082E065E0492F0E94CF07FE01EF533A
:102DC000FF4F80818295869586958370982F9170AC
:102DD00082E066E0492F0E94CF07FE01EF53FF4FCC
:102DE0008081982F991F9927991F82E067E0492FCA
:102DF0000E94CF07FE01E357FF4F80E090E0A0EA7A
:102E0000B2E480839183A283B3838E0107571F4F5F
:102E1000FE01E357FF4F60817181828193812BEA2C
:102E20003AEA4AE250E40E941702DC01CB01F801C1
:102E300080839183A283B383FE01E757FF4F6081B4
:102E400071818281938120E030E040E85FE30E945D
:102E50001D04882334F4FE01E857FF4F81E080838E
:102E6000E0C0FE01E757FF4F60817181828193814D
:102E700020E030E04FE753E40E94BD0318160CF049
:102E8000C0C0FE01E357FF4F608171818281938151
:102E900020E030E04AE754E40E941103DC01CB015A
:102EA000FE01EC57FF4F80839183A283B3838E0191
:102EB00000581F4FFE01EC57FF4F608171818281E6
:102EC000938120E030E04AEF54E40E941702DC01D5
:102ED000CB01F80180839183A283B383FE01E05884
:102EE000FF4F608171818281938120E030E040E872
:102EF0005FE30E941D04882344F4FE01E258FF4F63
:102F000081E090E09183808364C0FE01E058FF4F30
:102F1000608171818281938120E03FEF4FE757E428
:102F20000E94BD0318160CF043C0FE01EC57FF4F82
:102F3000608171818281938120E030E040E251E440
:102F40000E941702DC01CB018E0102581F4FBC0109
:102F5000CD010E944100DC01CB01F8019183808307
:102F60001FC0FE01E458FF4F88EC90E091838083FE
:102F7000FE01E458FF4F808191810197F1F7FE0136
:102F8000E458FF4F91838083DE01A258BF4FFE01BA
:102F9000E258FF4F80819181019711969C938E9307
:102FA000FE01E258FF4F808191810097D1F64BC01E
:102FB0008E0102581F4FFE01E058FF4F6081718162
:102FC000828193810E944100DC01CB01F801918351
:102FD0008083DE01A658BF4FFE01E258FF4F80817B
:102FE000918111969C938E93FE01E658FF4F80814C
:102FF00091810197F1F7FE01E658FF4F918380839D
:1030000022C08E0108571F4FFE01E757FF4F608116
:103010007181828193810E944100DC01CB01F80122
:103020008083DE01A758BF4FFE01E857FF4F808124
:103030008C93FE01E758FF4F80818A95F1F7FE01DE
:10304000E758FF4F808381E062E040E00E94CF07B5
:10305000FE01EB58FF4F80E090E0A0EFB1E48083E9
:103060009183A283B3838E010F581F4FFE01EB584B
:10307000FF4F60817181828193812BEA3AEA4AE2B3
:1030800050E40E941702DC01CB01F8018083918398
:10309000A283B383FE01EF58FF4F6081718182816B
:1030A000938120E030E040E85FE30E941D04882324
:1030B00034F4FE01E059FF4F81E08083E0C0FE015F
:1030C000EF58FF4F608171818281938120E030E071
:1030D0004FE753E40E94BD0318160CF0C0C0FE0178
:1030E000EB58FF4F608171818281938120E030E055
:1030F0004AE754E40E941103DC01CB01FE01E459CC
:10310000FF4F80839183A283B3838E0108591F4FA1
:10311000FE01E459FF4F608171818281938120E03B
:1031200030E04AEF54E40E941702DC01CB01F801C1
:1031300080839183A283B383FE01E859FF4F6081AE
:1031400071818281938120E030E040E85FE30E945A
:103150001D04882344F4FE01EA59FF4F81E090E00A
:103160009183808364C0FE01E859FF4F60817181C3
:103170008281938120E03FEF4FE757E40E94BD0337
:1031800018160CF043C0FE01E459FF4F60817181B5
:103190008281938120E030E040E251E40E941702F6
:1031A000DC01CB018E010A591F4FBC01CD010E94E9
:1031B0004100DC01CB01F801918380831FC0FE0137
:1031C000EC59FF4F88EC90E091838083FE01EC592D
:1031D000FF4F808191810197F1F7FE01EC59FF4F7C
:1031E00091838083DE01AA59BF4FFE01EA59FF4F48
:1031F00080819181019711969C938E93FE01EA59EB
:10320000FF4F808191810097D1F64BC08E010A5902
:103210001F4FFE01E859FF4F6081718182819381C8
:103220000E944100DC01CB01F80191838083DE0123
:10323000AE59BF4FFE01EA59FF4F8081918111962F
:103240009C938E93FE01EE59FF4F808191810197EF
:10325000F1F7FE01EE59FF4F9183808322C08E016A
:1032600000591F4FFE01EF58FF4F6081718182812D
:1032700093810E944100DC01CB01F8018083DE01D3
:10328000AF59BF4FFE01E059FF4F80818C93FE0183
:10329000EF59FF4F80818A95F1F7FE01EF59FF4FFB
:1032A0008083FE01E35AFF4F80E090E0A0EAB1E4A2
:1032B00080839183A283B3838E01075A1F4FFE013F
:1032C000E35AFF4F60817181828193812BEA3AEA50
:1032D0004AE250E40E941702DC01CB01F80180832E
:1032E0009183A283B383FE01E75AFF4F608171810E
:1032F0008281938120E030E040E85FE30E941D047A
:10330000882334F4FE01E85AFF4F81E08083E0C057
:10331000FE01E75AFF4F608171818281938120E035
:1033200030E04FE753E40E94BD0318160CF0C0C014
:10333000FE01E35AFF4F608171818281938120E019
:1033400030E04AE754E40E941103DC01CB01FE01A6
:10335000EC5AFF4F80839183A283B3838E01005B7D
:103360001F4FFE01EC5AFF4F608171818281938172
:1033700020E030E04AEF54E40E941702DC01CB0168
:10338000F80180839183A283B383FE01E05BFF4F4A
:10339000608171818281938120E030E040E85FE3C9
:1033A0000E941D04882344F4FE01E25BFF4F81E08C
:1033B00090E09183808364C0FE01E05BFF4F6081F9
:1033C00071818281938120E03FEF4FE757E40E94B3
:1033D000BD0318160CF043C0FE01EC5AFF4F60818C
:1033E00071818281938120E030E040E251E40E94CB
:1033F0001702DC01CB018E01025B1F4FBC01CD0126
:103400000E944100DC01CB01F801918380831FC041
:10341000FE01E45BFF4F88EC90E091838083FE0126
:10342000E45BFF4F808191810197F1F7FE01E45B3E
:10343000FF4F91838083DE01A25BBF4FFE01E25B01
:10344000FF4F80819181019711969C938E93FE018D
:10345000E25BFF4F808191810097D1F64BC08E01D6
:10346000025B1F4FFE01E05BFF4F60817181828133
:1034700093810E944100DC01CB01F801918380839C
:10348000DE01A65BBF4FFE01E25BFF4F80819181B1
:1034900011969C938E93FE01E65BFF4F8081918194
:1034A0000197F1F7FE01E65BFF4F9183808322C015
:1034B0008E01085A1F4FFE01E75AFF4F608171814C
:1034C000828193810E944100DC01CB01F80180835D
:1034D000DE01A75BBF4FFE01E85AFF4F80818C934E
:1034E000FE01E75BFF4F80818A95F1F7FE01E75B04
:1034F000FF4F808381E062E041E00E94CF07FE0140
:10350000EB5BFF4F80E090E0A6E1B3E48083918322
:10351000A283B3838E010F5B1F4FFE01EB5BFF4F56
:1035200060817181828193812BEA3AEA4AE250E418
:103530000E941702DC01CB01F80180839183A283F2
:10354000B383FE01EF5BFF4F6081718182819381C4
:1035500020E030E040E85FE30E941D04882334F45B
:1035600081E0FE01E05CFF4F80839DC0FE01EF5BC8
:10357000FF4F608171818281938120E030E04FE7CD
:1035800053E40E94BD0318160CF07EC0FE01EB5BF5
:10359000FF4F608171818281938120E030E04AE7B2
:1035A00054E40E941103DC01CB018CAF9DAFAEAFA0
:1035B000BFAF6CAD7DAD8EAD9FAD20E030E04AEF8A
:1035C00054E40E941702DC01CB0188AF99AFAAAF87
:1035D000BBAF68AD79AD8AAD9BAD20E030E040E88F
:1035E0005FE30E941D0488232CF481E090E09FABF0
:1035F0008EAB3FC068AD79AD8AAD9BAD20E03FEFAB
:103600004FE757E40E94BD0318164CF56CAD7DAD35
:103610008EAD9FAD20E030E040E251E40E94170201
:10362000DC01CB01BC01CD010E944100DC01CB01DA
:103630009FAB8EAB0FC088EC90E09DAB8CAB8CA9A0
:103640009DA90197F1F79DAB8CAB8EA99FA901971E
:103650009FAB8EAB8EA99FA9009769F72DC068AD6F
:1036600079AD8AAD9BAD0E944100DC01CB019FABDF
:103670008EAB8EA99FA99BAB8AAB8AA99BA9019708
:10368000F1F79BAB8AAB18C0FE01EF5BFF4F608187
:103690007181828193810E944100DC01CB01FE0196
:1036A000E05CFF4F8083FE01E05CFF4F808189ABCF
:1036B00089A98A95F1F789ABFE01EF53FF4F80810D
:1036C000982F917082E064E0492F0E94CF07FE019D
:1036D000EF53FF4F80818695982F917082E065E0CF
:1036E000492F0E94CF07FE01EF53FF4F808186953F
:1036F0008695982F917082E066E0492F0E94CF074F
:10370000FE01EF53FF4F8081869586958695982F11
:10371000917082E067E0492F0E94CF0780E090E03F
:10372000A0EAB2E48DA79EA7AFA7B8AB6DA57EA512
:103730008FA598A92BEA3AEA4AE250E40E941702C0
:10374000DC01CB0189A79AA7ABA7BCA769A57AA57D
:103750008BA59CA520E030E040E85FE30E941D04BB
:1037600088231CF481E088A791C069A57AA58BA560
:103770009CA520E030E04FE753E40E94BD031816FB
:103780000CF07BC06DA57EA58FA598A920E030E048
:103790004AE754E40E941103DC01CB018CA39DA3F2
:1037A000AEA3BFA36CA17DA18EA19FA120E030E0BC
:1037B0004AEF54E40E941702DC01CB0188A399A3CD
:1037C000AAA3BBA368A179A18AA19BA120E030E0B4
:1037D00040E85FE30E941D0488232CF481E090E020
:1037E0009F8F8E8F3FC068A179A18AA19BA120E005
:1037F0003FEF4FE757E40E94BD0318164CF56CA14C
:103800007DA18EA19FA120E030E040E251E40E9422
:103810001702DC01CB01BC01CD010E944100DC019B
:10382000CB019F8F8E8F0FC088EC90E09D8F8C8F87
:103830008C8D9D8D0197F1F79D8F8C8F8E8D9F8D37
:1038400001979F8F8E8F8E8D9F8D009769F724C073
:1038500068A179A18AA19BA10E944100DC01CB0152
:103860009F8F8E8F8E8D9F8D9B8F8A8F8A8D9B8D44
:103870000197F1F79B8F8A8F0FC069A57AA58BA559
:103880009CA50E944100DC01CB0188A788A5898FF7
:10389000898D8A95F1F7898F81E062E040E00E948E
:1038A000CF0780E090E0A0EFB1E48D8B9E8BAF8BD3
:1038B000B88F6D897E898F89988D2BEA3AEA4AE222
:1038C00050E40E941702DC01CB01898B9A8BAB8BF1
:1038D000BC8B69897A898B899C8920E030E040E83B
:1038E0005FE30E941D0488231CF481E0888B91C053
:1038F00069897A898B899C8920E030E04FE753E41D
:103900000E94BD0318160CF07BC06D897E898F89DB
:10391000988D20E030E04AE754E40E941103DC0176
:10392000CB018C879D87AE87BF876C857D858E8513
:103930009F8520E030E04AEF54E40E941702DC014A
:10394000CB0188879987AA87BB87688579858A850F
:103950009B8520E030E040E85FE30E941D0488235F
:103960002CF481E090E09F838E833FC06885798549
:103970008A859B8520E03FEF4FE757E40E94BD0317
:1039800018164CF56C857D858E859F8520E030E08E
:1039900040E251E40E941702DC01CB01BC01CD01E1
:1039A0000E944100DC01CB019F838E830FC088EC15
:1039B00090E09D838C838C819D810197F1F79D839D
:1039C0008C838E819F8101979F838E838E819F81BF
:1039D000009769F724C0688579858A859B850E9450
:1039E0004100DC01CB019F838E838E819F819B836D
:1039F0008A838A819B810197F1F79B838A830FC019
:103A000069897A898B899C890E944100DC01CB01FC
:103A1000888B8889898389818A95F1F78983CF5337
:103A2000DF4F0FB6F894DEBF0FBECDBFCF91DF9151
:103A30001F910F910895DF93CF93CDB7DEB7A7976E
:103A40000FB6F894DEBF0FBECDBF8FA381E060E05C
:103A500040E00E94CF0781E061E040E00E94CF0794
:103A600082E06FA10E94DE0A81E062E041E00E94F4
:103A7000CF0780E090E0A0E0B0E48BA39CA3ADA3CF
:103A8000BEA36BA17CA18DA19EA12BEA3AEA4AE2DA
:103A900050E40E941702DC01CB018F8F98A3A9A3E9
:103AA000BAA36F8D78A189A19AA120E030E040E807
:103AB0005FE30E941D0488231CF481E08E8F91C077
:103AC0006F8D78A189A19AA120E030E04FE753E4FF
:103AD0000E94BD0318160CF07BC06BA17CA18DA1C8
:103AE0009EA120E030E04AE754E40E941103DC018B
:103AF000CB018A8F9B8FAC8FBD8F6A8D7B8D8C8D18
:103B00009D8D20E030E04AEF54E40E941702DC0172
:103B1000CB018E8B9F8BA88FB98F6E897F89888D03
:103B2000998D20E030E040E85FE30E941D04882387
:103B30002CF481E090E09D8B8C8B3FC06E897F8957
:103B4000888D998D20E03FEF4FE757E40E94BD0339
:103B500018164CF56A8D7B8D8C8D9D8D20E030E0A4
:103B600040E251E40E941702DC01CB01BC01CD010F
:103B70000E944100DC01CB019D8B8C8B0FC088EC37
:103B800090E09B8B8A8B8A899B890197F1F79B8BAD
:103B90008A8B8C899D8901979D8B8C8B8C899D89C3
:103BA000009769F724C06E897F89888D998D0E945E
:103BB0004100DC01CB019D8B8C8B8C899D89998B7D
:103BC000888B888999890197F1F7998B888B0FC029
:103BD0006F8D78A189A19AA10E944100DC01CB01DF
:103BE0008E8F8E8D8F878F858A95F1F78F8781E0F5
:103BF00062E040E00E94CF0780E090E0A0E0B0E407
:103C00008B879C87AD87BE876B857C858D859E85E0
:103C100020E030E04AEF54E40E941702DC01CB01BF
:103C20008F839887A987BA876F81788589859A85D8
:103C300020E030E040E85FE30E941D0488232CF47C
:103C400081E090E09E838D833FC06F817885898578
:103C50009A8520E03FEF4FE757E40E94BD03181616
:103C60004CF56B857C858D859E8520E030E040E2BB
:103C700051E40E941702DC01CB01BC01CD010E947E
:103C80004100DC01CB019E838D830FC088EC90E066
:103C90009C838B838B819C810197F1F79C838B8321
:103CA0008D819E8101979E838D838D819E8100975A
:103CB00069F714C06F81788589859A850E944100D3
:103CC000DC01CB019E838D838D819E819A838983C4
:103CD00089819A810197F1F79A838983A7960FB614
:103CE000F894DEBF0FBECDBFCF91DF9108950F9343
:103CF0001F93DF93CF93CDB7DEB7C15CD0400FB633
:103D0000F894DEBF0FBECDBFFE01EF53FF4F80839F
:103D100081E060E040E00E94CF0781E061E040E0A8
:103D20000E94CF07FE01E354FF4F80E090E0A0EA3D
:103D3000B1E480839183A283B3838E0107541F4F24
:103D4000FE01E354FF4F60817181828193812BEAF0
:103D50003AEA4AE250E40E941702DC01CB01F80182
:103D600080839183A283B383FE01E754FF4F608178
:103D700071818281938120E030E040E85FE30E941E
:103D80001D04882334F4FE01E854FF4F81E0808352
:103D9000E0C0FE01E754FF4F608171818281938111
:103DA00020E030E04FE753E40E94BD0318160CF00A
:103DB000C0C0FE01E354FF4F608171818281938115
:103DC00020E030E04AE754E40E941103DC01CB011B
:103DD000FE01EC54FF4F80839183A283B3838E0155
:103DE00000551F4FFE01EC54FF4F608171818281AD
:103DF000938120E030E04AEF54E40E941702DC0196
:103E0000CB01F80180839183A283B383FE01E05547
:103E1000FF4F608171818281938120E030E040E832
:103E20005FE30E941D04882344F4FE01E255FF4F26
:103E300081E090E09183808364C0FE01E055FF4FF4
:103E4000608171818281938120E03FEF4FE757E4E9
:103E50000E94BD0318160CF043C0FE01EC54FF4F46
:103E6000608171818281938120E030E040E251E401
:103E70000E941702DC01CB018E0102551F4FBC01CD
:103E8000CD010E944100DC01CB01F80191838083C8
:103E90001FC0FE01E455FF4F88EC90E091838083C2
:103EA000FE01E455FF4F808191810197F1F7FE01FA
:103EB000E455FF4F91838083DE01A255BF4FFE0181
:103EC000E255FF4F80819181019711969C938E93CB
:103ED000FE01E255FF4F808191810097D1F64BC0E2
:103EE0008E0102551F4FFE01E055FF4F6081718129
:103EF000828193810E944100DC01CB01F801918312
:103F00008083DE01A655BF4FFE01E255FF4F808141
:103F1000918111969C938E93FE01E655FF4F80810F
:103F200091810197F1F7FE01E655FF4F9183808360
:103F300022C08E0108541F4FFE01E754FF4F6081DD
:103F40007181828193810E944100DC01CB01F801E3
:103F50008083DE01A755BF4FFE01E854FF4F8081EB
:103F60008C93FE01E755FF4F80818A95F1F7FE01A2
:103F7000E755FF4F808381E062E041E00E94CF0778
:103F8000FE01EB55FF4F80E090E0A6E1B3E48083B3
:103F90009183A283B3838E010F551F4FFE01EB5512
:103FA000FF4F60817181828193812BEA3AEA4AE274
:103FB00050E40E941702DC01CB01F8018083918359
:103FC000A283B383FE01EF55FF4F6081718182812F
:103FD000938120E030E040E85FE30E941D048823E5
:103FE00034F4FE01E056FF4F81E08083E0C0FE0123
:103FF000EF55FF4F608171818281938120E030E035
:104000004FE753E40E94BD0318160CF0C0C0FE0138
:10401000EB55FF4F608171818281938120E030E018
:104020004AE754E40E941103DC01CB01FE01E4568F
:10403000FF4F80839183A283B3838E0108561F4F65
:10404000FE01E456FF4F608171818281938120E0FF
:1040500030E04AEF54E40E941702DC01CB01F80182
:1040600080839183A283B383FE01E856FF4F608172
:1040700071818281938120E030E040E85FE30E941B
:104080001D04882344F4FE01EA56FF4F81E090E0CE
:104090009183808364C0FE01E856FF4F6081718187
:1040A0008281938120E03FEF4FE757E40E94BD03F8
:1040B00018160CF043C0FE01E456FF4F6081718179
:1040C0008281938120E030E040E251E40E941702B7
:1040D000DC01CB018E010A561F4FBC01CD010E94AD
:1040E0004100DC01CB01F801918380831FC0FE01F8
:1040F000EC56FF4F88EC90E091838083FE01EC56F4
:10410000FF4F808191810197F1F7FE01EC56FF4F3F
:1041100091838083DE01AA56BF4FFE01EA56FF4F0E
:1041200080819181019711969C938E93FE01EA56AE
:10413000FF4F808191810097D1F64BC08E010A56C6
:104140001F4FFE01E856FF4F60817181828193818C
:104150000E944100DC01CB01F80191838083DE01E4
:10416000AE56BF4FFE01EA56FF4F808191811196F6
:104170009C938E93FE01EE56FF4F808191810197B3
:10418000F1F7FE01EE56FF4F9183808322C08E012E
:1041900000561F4FFE01EF55FF4F608171818281F4
:1041A00093810E944100DC01CB01F8018083DE0194
:1041B000AF56BF4FFE01E056FF4F80818C93FE014A
:1041C000EF56FF4F80818A95F1F7FE01EF56FF4FC2
:1041D0008083FE01EF53FF4F808182958F70982F6F
:1041E000917082E064E0492F0E94CF07FE01EF53F7
:1041F000FF4F8081829586958770982F917082E01D
:1042000065E0492F0E94CF07FE01EF53FF4F8081E9
:104210008295869586958370982F917082E066E0EE
:10422000492F0E94CF07FE01EF53FF4F8081982F47
:10423000991F9927991F82E067E0492F0E94CF07B5
:10424000FE01E357FF4F80E090E0A0EAB2E48083F4
:104250009183A283B3838E0107571F4FFE01E3575B
:10426000FF4F60817181828193812BEA3AEA4AE2B1
:1042700050E40E941702DC01CB01F8018083918396
:10428000A283B383FE01E757FF4F60817181828172
:10429000938120E030E040E85FE30E941D04882322
:1042A00034F4FE01E857FF4F81E08083E0C0FE0157
:1042B000E757FF4F608171818281938120E030E078
:1042C0004FE753E40E94BD0318160CF0C0C0FE0176
:1042D000E357FF4F608171818281938120E030E05C
:1042E0004AE754E40E941103DC01CB01FE01EC57C4
:1042F000FF4F80839183A283B3838E0100581F4FA9
:10430000FE01EC57FF4F608171818281938120E033
:1043100030E04AEF54E40E941702DC01CB01F801BF
:1043200080839183A283B383FE01E058FF4F6081B5
:1043300071818281938120E030E040E85FE30E9458
:104340001D04882344F4FE01E258FF4F81E090E011
:104350009183808364C0FE01E058FF4F60817181CA
:104360008281938120E03FEF4FE757E40E94BD0335
:1043700018160CF043C0FE01EC57FF4F60817181AD
:104380008281938120E030E040E251E40E941702F4
:10439000DC01CB018E0102581F4FBC01CD010E94F0
:1043A0004100DC01CB01F801918380831FC0FE0135
:1043B000E458FF4F88EC90E091838083FE01E4583D
:1043C000FF4F808191810197F1F7FE01E458FF4F83
:1043D00091838083DE01A258BF4FFE01E258FF4F58
:1043E00080819181019711969C938E93FE01E258F2
:1043F000FF4F808191810097D1F64BC08E0102580A
:104400001F4FFE01E058FF4F6081718182819381CF
:104410000E944100DC01CB01F80191838083DE0121
:10442000A658BF4FFE01E258FF4F8081918111963F
:104430009C938E93FE01E658FF4F808191810197F6
:10444000F1F7FE01E658FF4F9183808322C08E0171
:1044500008571F4FFE01E757FF4F6081718182812E
:1044600093810E944100DC01CB01F8018083DE01D1
:10447000A758BF4FFE01E857FF4F80818C93FE0184
:10448000E758FF4F80818A95F1F7FE01E758FF4F0B
:10449000808381E062E040E00E94CF07FE01EB589C
:1044A000FF4F80E090E0A0EFB1E480839183A2838E
:1044B000B3838E010F581F4FFE01EB58FF4F6081F1
:1044C0007181828193812BEA3AEA4AE250E40E94A8
:1044D0001702DC01CB01F80180839183A283B383AF
:1044E000FE01EF58FF4F608171818281938120E04E
:1044F00030E040E85FE30E941D04882334F4FE01AD
:10450000E059FF4F81E08083E0C0FE01EF58FF4F8C
:10451000608171818281938120E030E04FE753E434
:104520000E94BD0318160CF0C0C0FE01EB58FF4FEF
:10453000608171818281938120E030E04AE754E418
:104540000E941103DC01CB01FE01E459FF4F80837F
:104550009183A283B3838E0108591F4FFE01E45952
:10456000FF4F608171818281938120E030E04AEFCA
:1045700054E40E941702DC01CB01F801808391838F
:10458000A283B383FE01E859FF4F6081718182816C
:10459000938120E030E040E85FE30E941D0488231F
:1045A00044F4FE01EA59FF4F81E090E0918380835B
:1045B00064C0FE01E859FF4F60817181828193815F
:1045C00020E03FEF4FE757E40E94BD0318160CF0C0
:1045D00043C0FE01E459FF4F608171818281938164
:1045E00020E030E040E251E40E941702DC01CB0100
:1045F0008E010A591F4FBC01CD010E944100DC0110
:10460000CB01F801918380831FC0FE01EC59FF4F5D
:1046100088EC90E091838083FE01EC59FF4F80810C
:1046200091810197F1F7FE01EC59FF4F918380834F
:10463000DE01AA59BF4FFE01EA59FF4F80819181E7
:10464000019711969C938E93FE01EA59FF4F80814A
:1046500091810097D1F64BC08E010A591F4FFE0180
:10466000E859FF4F60817181828193810E944100EE
:10467000DC01CB01F80191838083DE01AE59BF4F8D
:10468000FE01EA59FF4F8081918111969C938E9390
:10469000FE01EE59FF4F808191810197F1F7FE01F4
:1046A000EE59FF4F9183808322C08E0100591F4F26
:1046B000FE01EF58FF4F60817181828193810E94DA
:1046C0004100DC01CB01F8018083DE01AF59BF4F0F
:1046D000FE01E059FF4F80818C93FE01EF59FF4F9F
:1046E00080818A95F1F7FE01EF59FF4F8083FE012B
:1046F000E35AFF4F80E090E0A0EAB1E48083918329
:10470000A283B3838E01075A1F4FFE01E35AFF4F66
:1047100060817181828193812BEA3AEA4AE250E416
:104720000E941702DC01CB01F80180839183A283F0
:10473000B383FE01E75AFF4F6081718182819381CB
:1047400020E030E040E85FE30E941D04882334F459
:10475000FE01E85AFF4F81E08083E0C0FE01E75A86
:10476000FF4F608171818281938120E030E04FE7CB
:1047700053E40E94BD0318160CF0C0C0FE01E35ABA
:10478000FF4F608171818281938120E030E04AE7B0
:1047900054E40E941103DC01CB01FE01EC5AFF4FEF
:1047A00080839183A283B3838E01005B1F4FFE0140
:1047B000EC5AFF4F608171818281938120E030E06B
:1047C0004AEF54E40E941702DC01CB01F801808318
:1047D0009183A283B383FE01E05BFF4F608171810F
:1047E0008281938120E030E040E85FE30E941D0475
:1047F000882344F4FE01E25BFF4F81E090E0918367
:10480000808364C0FE01E05BFF4F60817181828123
:10481000938120E03FEF4FE757E40E94BD03181655
:104820000CF043C0FE01EC5AFF4F60817181828120
:10483000938120E030E040E251E40E941702DC0165
:10484000CB018E01025B1F4FBC01CD010E944100D4
:10485000DC01CB01F801918380831FC0FE01E45B82
:10486000FF4F88EC90E091838083FE01E45BFF4F73
:10487000808191810197F1F7FE01E45BFF4F918305
:104880008083DE01A25BBF4FFE01E25BFF4F8081B0
:104890009181019711969C938E93FE01E25BFF4FED
:1048A000808191810097D1F64BC08E01025B1F4F32
:1048B000FE01E05BFF4F60817181828193810E94E4
:1048C0004100DC01CB01F80191838083DE01A65B0E
:1048D000BF4FFE01E25BFF4F8081918111969C9357
:1048E0008E93FE01E65BFF4F808191810197F1F786
:1048F000FE01E65BFF4F9183808322C08E01085A40
:104900001F4FFE01E75AFF4F6081718182819381C1
:104910000E944100DC01CB01F8018083DE01A75B2E
:10492000BF4FFE01E85AFF4F80818C93FE01E75B89
:10493000FF4F80818A95F1F7FE01E75BFF4F80838F
:1049400081E062E041E00E94CF07FE01EB5BFF4F98
:1049500080E090E0A6E1B3E480839183A283B383F7
:104960008E010F5B1F4FFE01EB5BFF4F608171817A
:10497000828193812BEA3AEA4AE250E40E941702CC
:10498000DC01CB01F80180839183A283B383FE0114
:10499000EF5BFF4F608171818281938120E030E085
:1049A00040E85FE30E941D04882334F481E0FE01A7
:1049B000E05CFF4F80839DC0FE01EF5BFF4F608195
:1049C00071818281938120E030E04FE753E40E94BF
:1049D000BD0318160CF07EC0FE01EB5BFF4F60813B
:1049E00071818281938120E030E04AE754E40E94A3
:1049F0001103DC01CB018CAF9DAFAEAFBFAF6CAD8F
:104A00007DAD8EAD9FAD20E030E04AEF54E40E94D2
:104A10001702DC01CB0188AF99AFAAAFBBAF68AD7D
:104A200079AD8AAD9BAD20E030E040E85FE30E94C5
:104A30001D0488232CF481E090E09FAB8EAB3FC037
:104A400068AD79AD8AAD9BAD20E03FEF4FE757E40D
:104A50000E94BD0318164CF56CAD7DAD8EAD9FADBB
:104A600020E030E040E251E40E941702DC01CB017B
:104A7000BC01CD010E944100DC01CB019FAB8EAB9C
:104A80000FC088EC90E09DAB8CAB8CA99DA90197E1
:104A9000F1F79DAB8CAB8EA99FA901979FAB8EAB15
:104AA0008EA99FA9009769F72DC068AD79AD8AAD31
:104AB0009BAD0E944100DC01CB019FAB8EAB8EA968
:104AC0009FA99BAB8AAB8AA99BA90197F1F79BABE6
:104AD0008AAB18C0FE01EF5BFF4F6081718182815C
:104AE00093810E944100DC01CB01FE01E05CFF4F9D
:104AF0008083FE01E05CFF4F808189AB89A98A95A4
:104B0000F1F789ABFE01EF53FF4F8081982F917031
:104B100082E064E0492F0E94CF07FE01EF53FF4F70
:104B200080818695982F917082E065E0492F0E94E0
:104B3000CF07FE01EF53FF4F808186958695982F12
:104B4000917082E066E0492F0E94CF07FE01EF538B
:104B5000FF4F8081869586958695982F917082E08B
:104B600067E0492F0E94CF0780E090E0A0EAB2E41E
:104B70008DA79EA7AFA7B8AB6DA57EA58FA598A959
:104B80002BEA3AEA4AE250E40E941702DC01CB0128
:104B900089A79AA7ABA7BCA769A57AA58BA59CA551
:104BA00020E030E040E85FE30E941D0488231CF40D
:104BB00081E088A791C069A57AA58BA59CA520E076
:104BC00030E04FE753E40E94BD0318160CF07BC0A1
:104BD0006DA57EA58FA598A920E030E04AE754E4B2
:104BE0000E941103DC01CB018CA39DA3AEA3BFA344
:104BF0006CA17DA18EA19FA120E030E04AEF54E49A
:104C00000E941702DC01CB0188A399A3AAA3BBA32E
:104C100068A179A18AA19BA120E030E040E85FE390
:104C20000E941D0488232CF481E090E09F8F8E8FDA
:104C30003FC068A179A18AA19BA120E03FEF4FE787
:104C400057E40E94BD0318164CF56CA17DA18EA1FE
:104C50009FA120E030E040E251E40E941702DC0115
:104C6000CB01BC01CD010E944100DC01CB019F8F33
:104C70008E8F0FC088EC90E09D8F8C8F8C8D9D8DDA
:104C80000197F1F79D8F8C8F8E8D9F8D01979F8F50
:104C90008E8F8E8D9F8D009769F724C068A179A1B2
:104CA0008AA19BA10E944100DC01CB019F8F8E8FC6
:104CB0008E8D9F8D9B8F8A8F8A8D9B8D0197F1F7AB
:104CC0009B8F8A8F0FC069A57AA58BA59CA50E9492
:104CD0004100DC01CB0188A788A5898F898D8A9541
:104CE000F1F7898F81E062E040E00E94CF0780E029
:104CF00090E0A0EFB1E48D8B9E8BAF8BB88F6D8968
:104D00007E898F89988D2BEA3AEA4AE250E40E9424
:104D10001702DC01CB01898B9A8BAB8BBC8B698929
:104D20007A898B899C8920E030E040E85FE30E942B
:104D30001D0488231CF481E0888B91C069897A89DD
:104D40008B899C8920E030E04FE753E40E94BD034B
:104D500018160CF07BC06D897E898F89988D20E0B4
:104D600030E04AE754E40E941103DC01CB018C8758
:104D70009D87AE87BF876C857D858E859F8520E06A
:104D800030E04AEF54E40E941702DC01CB0188872F
:104D90009987AA87BB87688579858A859B8520E066
:104DA00030E040E85FE30E941D0488232CF481E09A
:104DB00090E09F838E833FC0688579858A859B8537
:104DC00020E03FEF4FE757E40E94BD0318164CF573
:104DD0006C857D858E859F8520E030E040E251E442
:104DE0000E941702DC01CB01BC01CD010E944100F1
:104DF000DC01CB019F838E830FC088EC90E09D8304
:104E00008C838C819D810197F1F79D838C838E81AA
:104E10009F8101979F838E838E819F81009769F781
:104E200024C0688579858A859B850E944100DC01C4
:104E3000CB019F838E838E819F819B838A838A810E
:104E40009B810197F1F79B838A830FC069897A89D7
:104E50008B899C890E944100DC01CB01888B888969
:104E6000898389818A95F1F78983CF53DF4F0FB604
:104E7000F894DEBF0FBECDBFCF91DF911F910F9190
:104E80000895DF93CF9300D0CDB7DEB79A8389839F
:104E90000AC0E981FA8180810E94F51289819A8194
:104EA00001969A838983E981FA818081882389F731
:104EB0000F900F90CF91DF910895DF93CF9300D0A3
:104EC000CDB7DEB79A8389830AC0E981FA818081F0
:104ED0000E94511489819A8101969A838983E9817C
:104EE000FA818081882389F70F900F90CF91DF910D
:104EF0000895DF93CF93CDB7DEB766970FB6F894DA
:104F0000DEBF0FBECDBF6B8B7C8B8D8B9E8B1A82D1
:104F100030C08B899C89AD89BE892AE030E040E0B1
:104F200050E0BC01CD010E94EF36DC01CB0189834A
:104F30008A81282F30E08981482F405DCE01039679
:104F4000FC01E20FF31F40838B899C89AD89BE89E8
:104F50002AE030E040E050E0BC01CD010E94EF3695
:104F6000DA01C9018B8B9C8BAD8BBE8B8A818F5FE5
:104F70008A838B899C89AD89BE890097A105B1057B
:104F800041F68A81282F30E0CE010396FC01E20F22
:104F9000F31F10828A81282F2150CE01039660E0F2
:104FA000422F0E944728CE0103960E944127669611
:104FB0000FB6F894DEBF0FBECDBFCF91DF9108953D
:104FC000DF93CF93CDB7DEB766970FB6F894DEBF09
:104FD0000FBECDBF6B8B7C8B8D8B9E8B1A8230C0AE
:104FE0008B899C89AD89BE892AE030E040E050E0A1
:104FF000BC01CD010E94EF36DC01CB0189838A819F
:10500000282F30E08981482F405DCE010396FC01B6
:10501000E20FF31F40838B899C89AD89BE892AE00A
:1050200030E040E050E0BC01CD010E94EF36DA01F3
:10503000C9018B8B9C8BAD8BBE8B8A818F5F8A83E2
:105040008B899C89AD89BE890097A105B10541F680
:105050008A81282F30E0CE010396FC01E20FF31F76
:1050600010828A81282F2150CE01039660E0422FC2
:105070000E944728CE0103960E945D2766960FB6D0
:10508000F894DEBF0FBECDBFCF91DF910895DF93BF
:10509000CF9300D000D00F92CDB7DEB79B838A8329
:1050A0006C834D832CC08C81282F30E08A819B81BA
:1050B000FC01E20FF31F808189838C81282F30E06F
:1050C0008A819B81DC01A20FB31F8D81282F30E0E4
:1050D0008A819B81FC01E20FF31F80818C938D817B
:1050E000282F30E08A819B81FC01E20FF31F898128
:1050F00080838C818F5F8C838D8181508D839C8197
:105100008D81981780F280E00F900F900F900F9094
:105110000F90CF91DF910895DF93CF9300D000D00F
:10512000CDB7DEB789836A838981282F30E03C833D
:105130002B838B819C8181309105D1F02B813C8127
:10514000223031052CF48B819C81009761F01DC0C9
:105150002B813C812230310581F08B819C81833011
:10516000910579F012C08A8180580E941B1D0DC0E4
:105170008A8180540E941B1D08C08A810E941B1DC9
:1051800004C08A81805C0E941B1D0F900F900F90BD
:105190000F90CF91DF910895DF93CF9300D000D08F
:1051A000CDB7DEB79B838A836C838C81882F90E098
:1051B0000896880F991F880F991F880F991F0E94C2
:1051C0001B1D19820EC08981282F30E08A819B81A6
:1051D000FC01E20FF31F80810E94F51289818F5F2D
:1051E00089838981883078F30F900F900F900F900A
:1051F000CF91DF910895DF93CF930F92CDB7DEB7B4
:1052000089838981823521F488E10E941B1D06C0B3
:1052100089818C3419F48CE10E941B1D0F90CF9171
:10522000DF910895DF93CF9300D000D0CDB7DEB7E4
:1052300089836A835C834B8389816A810E948C287D
:105240008B819C810E9441270F900F900F900F90AF
:10525000CF91DF910895DF93CF93CDB7DEB781E093
:105260000E941B1DCF91DF910895DF93CF930F9282
:10527000CDB7DEB71982AAE2B0E0EAE2F0E08081C1
:1052800080618C93AAE2B0E0EAE2F0E0808188607D
:105290008C9389818068898389818F7B89838981C7
:1052A0008F7E898389818F7D89838981877F8983A7
:1052B00089818260898389818460898389818E7FE5
:1052C0008983AAE2B0E0EAE2F0E080818B7F8C93F0
:1052D000E0E4F0E089818083E9E2F0E083E3808329
:1052E0000F90CF91DF910895DF93CF930F92CDB7B9
:1052F000DEB78983EBE2F0E0808182958695877046
:10530000882F90E0817090700097A1F3ECE2F0E0BC
:10531000898180830F90CF91DF910895DF93CF93A0
:10532000CDB7DEB7EBE2F0E080818823DCF7ECE27A
:10533000F0E08081CF91DF910895DF93CF9300D08B
:10534000CDB7DEB79A8389830AC0E981FA8180816B
:105350000E94742989819A8101969A838983E981BF
:10536000FA818081882389F70F900F90CF91DF9188
:1053700008950F931F93DF93CF9300D00F92CDB773
:10538000DEB79B838A8319828981282F30E08A8146
:105390009B818C01020F131F0E948E29F8018083CC
:1053A0000FC089818F5F89838981282F30E08A81AE
:1053B0009B818C01020F131F0E948E29F8018083AC
:1053C0008981282F30E08A819B81FC01E20FF31F45
:1053D0008081833231F78981282F30E08A819B8157
:1053E000FC01E20FF31F10820F900F900F90CF91EE
:1053F000DF911F910F9108950F931F93DF93CF9328
:10540000CDB7DEB7CF54D0400FB6F894DEBF0FBE95
:10541000CDBF0E94EE0C0E9447060E9435290E94D3
:10542000B52CFE01E55BFF4F1082118212821382C0
:10543000FE01E95BFF4F108211821282138280E627
:1054400090E00E944127FE01ED5BFF4F80E090E07D
:10545000AAE7B4E480839183A283B3838E01015CC5
:105460001F4FFE01ED5BFF4F60817181828193814F
:1054700020E030E04AEF54E40E941702DC01CB0147
:10548000F80180839183A283B383FE01FF9660813C
:1054900071818281938120E030E040E85FE30E94E7
:1054A0001D0488232CF481E090E09EAF8DAF46C0B0
:1054B000FE01FF96608171818281938120E03FEF40
:1054C0004FE757E40E94BD03181664F5FE01ED5B3B
:1054D000FF4F608171818281938120E030E040E262
:1054E00051E40E941702DC01CB01BC01CD010E94F6
:1054F0004100DC01CB019EAF8DAF0FC088EC90E086
:105500009CAF8BAF8BAD9CAD0197F1F79CAF8BAF90
:105510008DAD9EAD01979EAF8DAF8DAD9EAD0097C9
:1055200069F716C0FE01FF966081718182819381C7
:105530000E944100DC01CB019EAF8DAF8DAD9EADD1
:105540009AAF89AF89AD9AAD0197F1F79AAF89AF5C
:105550000E942B290E94AD2E0E94022DDC01CB015E
:10556000FE01E95BFF4F80839183A283B38380E0D8
:1055700090E0AAE7B4E48DAB9EABAFABB8AF6DA93A
:105580007EA98FA998AD20E030E04AEF54E40E9454
:105590001702DC01CB0189AB9AABABABBCAB69A901
:1055A0007AA98BA99CA920E030E040E85FE30E9443
:1055B0001D0488232CF481E090E098AB8FA73FC0B6
:1055C00069A97AA98BA99CA920E03FEF4FE757E48E
:1055D0000E94BD0318164CF56DA97EA98FA998AD40
:1055E00020E030E040E251E40E941702DC01CB01F0
:1055F000BC01CD010E944100DC01CB0198AB8FA71B
:105600000FC088EC90E09EA78DA78DA59EA5019761
:10561000F1F79EA78DA78FA598A9019798AB8FA7A3
:105620008FA598A9009769F714C069A97AA98BA9D1
:105630009CA90E944100DC01CB0198AB8FA78FA5EC
:1056400098A99CA78BA78BA59CA50197F1F79CA770
:105650008BA7FE01E95BFF4F80819181A281B3811D
:10566000823DF4E09F07F0E0AF07F0E0BF0709F0EC
:105670008FC00E942B2980E690E00E94412780E0A5
:1056800090E0AAE7B4E48FA398A7A9A7BAA76FA14F
:1056900078A589A59AA520E030E04AEF54E40E945D
:1056A0001702DC01CB018BA39CA3ADA3BEA36BA10E
:1056B0007CA18DA19EA120E030E040E85FE30E9444
:1056C0001D0488232CF481E090E09AA389A33FC0B5
:1056D0006BA17CA18DA19EA120E03FEF4FE757E495
:1056E0000E94BD0318164CF56FA178A589A59AA54F
:1056F00020E030E040E251E40E941702DC01CB01DF
:10570000BC01CD010E944100DC01CB019AA389A319
:105710000FC088EC90E098A38F8F8F8D98A1019790
:10572000F1F798A38F8F89A19AA101979AA389A3D2
:1057300089A19AA1009769F714C06BA17CA18DA1E2
:105740009EA10E944100DC01CB019AA389A389A1FB
:105750009AA19E8F8D8F8D8D9E8D0197F1F79E8FD3
:105760008D8F0E94BE2EDC01CB01FE01E55BFF4F59
:1057700080839183A283B383FE01E55BFF4F808129
:105780009181A281B381BC01CD010E94752FE9CF27
:105790000E942B2981E790E00E94412780E090E061
:1057A000AAE7B4E4898F9A8FAB8FBC8F698D7A8D0D
:1057B0008B8D9C8D20E030E04AEF54E40E9417026C
:1057C000DC01CB018D8B9E8BAF8BB88F6D897E8971
:1057D0008F89988D20E030E040E85FE30E941D044F
:1057E00088232CF481E090E09C8B8B8B3FC06D89EB
:1057F0007E898F89988D20E03FEF4FE757E40E9424
:10580000BD0318164CF5698D7A8D8B8D9C8D20E02B
:1058100030E040E251E40E941702DC01CB01BC0100
:10582000CD010E944100DC01CB019C8B8B8B0FC012
:1058300088EC90E09A8B898B89899A890197F1F796
:105840009A8B898B8B899C8901979C8B8B8B8B89FD
:105850009C89009769F714C06D897E898F89988D1E
:105860000E944100DC01CB019C8B8B8B8B899C8936
:10587000988B8F878F8598890197F1F7988B8F8701
:105880000E94AD2E80E090E0AAE7B4E48B879C876D
:10589000AD87BE876B857C858D859E8520E030E059
:1058A0004AEF54E40E941702DC01CB018F839887F2
:1058B000A987BA876F81788589859A8520E030E04D
:1058C00040E85FE30E941D0488232CF481E090E00F
:1058D0009E838D833FC06F81788589859A8520E07E
:1058E0003FEF4FE757E40E94BD0318164CF56B8558
:1058F0007C858D859E8520E030E040E251E40E9469
:105900001702DC01CB01BC01CD010E944100DC018A
:10591000CB019E838D830FC088EC90E09C838B83AA
:105920008B819C810197F1F79C838B838D819E8174
:1059300001979E838D838D819E81009769F70CCEA0
:105940006F81788589859A850E944100DC01CB01B1
:105950009E838D838D819E819A83898389819A819B
:105960000197F1F79A838983F7CDDF93CF93CDB772
:10597000DEB781E064E041E00E94C70681E065E0B7
:1059800041E00E94C70681E066E041E00E94C70650
:1059900081E067E041E00E94C70681E064E040E00A
:1059A0000E94CF0781E065E040E00E94CF0781E0E0
:1059B00066E040E00E94CF0781E067E040E00E949F
:1059C000CF0780E060E041E00E94C70680E060E031
:1059D00040E00E94CF0780E062E041E00E94C706FD
:1059E00080E062E040E00E94CF0783E061E041E0B8
:1059F0000E94C70683E060E040E00E94C706CF91A6
:105A0000DF910895DF93CF93CDB7DEB7E0970FB660
:105A1000F894DEBF0FBECDBF1BA61CA61DA61EA6FA
:105A200018AA16C10E948E298FA78FA5803308F46B
:105A30009AC08FA58A3308F096C08FA5882F90E072
:105A4000A0E0B0E0BC01CD010E9479278BA59CA508
:105A5000ADA5BEA52AE030E040E050E0BC01CD019C
:105A60000E94D0369B01AC018FA5882F90E0A0E06A
:105A7000B0E0820F931FA41FB51F8BA79CA7ADA7F3
:105A8000BEA780E090E0AAE7B3E48FA398A7A9A7F8
:105A9000BAA76FA178A589A59AA520E030E04AEFC2
:105AA00054E40E941702DC01CB018BA39CA3ADA39D
:105AB000BEA36BA17CA18DA19EA120E030E040E8B7
:105AC0005FE30E941D0488232CF481E090E09AA3F8
:105AD00089A33FC06BA17CA18DA19EA120E03FEFD7
